:020000041800E2
:10000000BD0DC816FFFFFFFFA5E4B8A4D71D04D29D
:10001000F89D8318FEC192830000000000100018B4
:10002000C7E18A13C2FFFFFF8A7F28A4F234B2140B
:10100000F8FF05202520001839E400103BE400100B
:101010003DE400103FE4001041E400104BE50010F7
:101020004BE500104BE500104BE5001043E40010C9
:1010300045E400104BE5001047E4001049E40010BF
:101040004BE400104DE400104FE4001051E4001098
:1010500053E4001055E4001057E4001059E4001068
:101060005BE400105DE400105FE4001061E4001038
:1010700063E4001065E4001067E4001069E4001008
:101080006BE400106DE400106FE4001071E40010D8
:1010900073E4001075E4001077E4001079E40010A8
:1010A0007BE400107DE400107FE4001081E4001078
:1010B00083E4001085E4001087E4001089E4001048
:1010C0008BE400108DE400108FE4001091E4001018
:1010D00093E4001095E4001097E4001099E40010E8
:1010E0004BE500109BE400109DE400109FE400100D
:1010F000A1E40010A3E40010A5E40010A7E4001090
:10110000A9E40010ABE40010ADE40010AFE400105F
:10111000B1E40010B3E40010B5E40010B7E400102F
:10112000B9E40010BBE40010BDE40010BFE40010FF
:10113000C1E40010C3E40010C5E40010C7E40010CF
:10114000C9E40010CBE40010CDE40010CFE400109F
:10115000D1E40010D3E40010D5E40010D7E400106F
:10116000D9E40010DBE40010DDE40010DFE400103F
:10117000E1E40010E3E40010E5E40010E7E400100F
:10118000E9E40010EBE40010EDE40010EFE40010DF
:10119000F1E40010F3E40010F5E40010F7E40010AF
:1011A000F9E40010FBE40010FDE40010FFE400107F
:1011B00001E5001003E5001005E5001007E500104B
:1011C00009E500100BE500100DE500100FE500101B
:1011D00011E5001013E5001015E5001017E50010EB
:1011E00019E500101BE500101DE500101FE50010BB
:1011F00021E5001023E5001025E5001027E500108B
:1012000029E500102BE500102DE500102FE500105A
:1012100031E5001033E5001035E5001037E500102A
:1012200039E500103BE500103DE500103FE50010FA
:1012300041E5001043E5001045E5001047E50010CA
:0412400049E500106C
:1012440000006500C9002E019201F7015B02C00293
:1012540024038803ED035104B5041A057E05E20551
:101264004606AA060E077207D60739089D08010923
:101274006409C7092B0A8E0AF10A540BB70B1A0C1E
:101284007C0CDF0C410DA40D060E680ECA0E2B0F4C
:101294008D0FEE0F5010B11012117311D3113412BF
:1012A4009412F4125413B41313147314D214311586
:1012B4009015EE154C16AB1609176617C4172118AE
:1012C4007E18DB1837199319EF194B1AA71A021B4A
:1012D4005D1BB81B121C6C1CC61C201D791DD31D64
:1012E4002B1E841EDC1E341F8C1FE31F3A2091200A
:1012F400E7203D219321E8213D229222E7223B234E
:101304008E23E22335248824DA242C257E25CF2538
:1013140020267126C12611276027AF27FE274C28D7
:101324009A28E72835298129CE291A2A652AB02A3C
:10133400FB2A452B8F2BD82B212C6A2CB22CFA2C70
:10134400412D882DCF2D152E5A2E9F2EE42E282F79
:101354006C2FAF2FF22F34307630B830F93039316A
:101364007931B931F83136327432B232EF322C334A
:101374006833A333DF33193453348D34C634FF3424
:1013840037356E35A535DC35123648367D36B136FF
:10139400E53618374B377E37B037E13712384238E5
:1013A4007138A138CF38FD382B3958398439B039E0
:1013B400DB39063A303A593A823AAB3AD33AFA3AF6
:1013C400213B473B6D3B923BB63BDA3BFD3B203C2C
:1013D400423C643C853CA53CC53CE43C033D213D8A
:1013E4003F3D5B3D783D933DAF3DC93DE33DFC3D15
:1013F400153E2D3E453E5C3E723E883E9D3EB13ECE
:10140400C53ED83EEB3EFD3E0F3F203F303F403FC0
:101414004F3F5D3F6B3F783F853F913F9C3FA73FE8
:10142400B13FBB3FC43FCC3FD43FDB3FE13FE73F4D
:10143400EC3FF13FF53FF83FFB3FFD3FFF3F0040EE
:1014440000400040FF3FFD3FFB3FF83FF53FF13FC9
:10145400EC3FE73FE13FDB3FD43FCC3FC43FBB3FE2
:10146400B13FA73F9C3F913F853F783F6B3F5D3F36
:101474004F3F403F303F203F0F3FFD3EEB3ED83EC5
:10148400C53EB13E9D3E883E723E5C3E453E2D3E8D
:10149400153EFC3DE33DC93DAF3D933D783D5B3D8D
:1014A4003F3D213D033DE43CC53CA53C853C643CBB
:1014B400423C203CFD3BDA3BB63B923B6D3B473B19
:1014C400213BFA3AD33AAB3A823A593A303A063A9D
:1014D400DB39B039843958392B39FD38CF38A13844
:1014E400713842381238E137B0377E374B37183706
:1014F400E536B1367D3648361236DC35A5356E35DF
:101504003735FF34C6348D3453341934DF33A333C1
:1015140068332C33EF32B23274323632F831B931A7
:1015240079313931F930B83076303430F22FAF2F89
:101534006C2F282FE42E9F2E5A2E152ECF2D882D5A
:10154400412DFA2CB22C6A2C212CD82B8F2B452B15
:10155400FB2AB02A652A1A2ACE2981293529E728A7
:101564009A284C28FE27AF2760271127C126712609
:101574002026CF257E252C25DA2488243524E22331
:101584008E233B23E72292223D22E82193213D2111
:10159400E72091203A20E31F8C1F341FDC1E841E99
:1015A4002B1ED31D791D201DC61C6C1C121CB81BC0
:1015B4005D1B021BA71A4B1AEF1993193719DB1875
:1015C4007E182118C41766170917AB164C16EE15AA
:1015D40090153115D21473141314B4135413F41254
:1015E40094123412D31173111211B1105010EE0F62
:1015F4008D0F2B0FCA0E680E060EA40D410DDF0CC5
:101604007C0C1A0CB70B540BF10A8E0A2B0AC7096F
:10161400640901099D083908D60772070E07AA064E
:101624004606E2057E051A05B5045104ED03880358
:101634002403C0025B02F70192012E01C900650078
:1016440000009BFF37FFD2FE6EFE09FEA5FD40FDA4
:10165400DCFC78FC13FCAFFB4BFBE6FA82FA1EFAC7
:10166400BAF956F9F2F88EF82AF8C7F763F7FFF6D5
:101674009CF639F6D5F572F50FF5ACF449F4E6F3BA
:1016840084F321F3BFF25CF2FAF198F136F1D5F06C
:1016940073F012F0B0EF4FEFEEEE8DEE2DEECCEDD9
:1016A4006CED0CEDACEC4CECEDEB8DEB2EEBCFEAF2
:1016B40070EA12EAB4E955E9F7E89AE83CE8DFE7AA
:1016C40082E725E7C9E66DE611E6B5E559E5FEE4EE
:1016D400A3E448E4EEE394E33AE3E0E287E22DE2B4
:1016E400D5E17CE124E1CCE074E01DE0C6DF6FDFEE
:1016F40019DFC3DE6DDE18DEC3DD6EDD19DDC5DC8A
:1017040072DC1EDCCBDB78DB26DBD4DA82DA31DA7E
:10171400E0D98FD93FD9EFD8A0D851D802D8B4D7BF
:1017240066D719D7CBD67FD632D6E6D59BD550D53A
:1017340005D5BBD471D428D4DFD396D34ED306D3E6
:10174400BFD278D231D2EBD1A6D161D11CD1D8D0BD
:1017540094D051D00ED0CCCF8ACF48CF07CFC7CEAC
:1017640087CE47CE08CECACD8CCD4ECD11CDD4CCAC
:1017740098CC5DCC21CCE7CBADCB73CB3ACB01CBB2
:10178400C9CA92CA5BCA24CAEEC9B8C983C94FC9B7
:101794001BC9E8C8B5C882C850C81FC8EEC7BEC7B1
:1017A4008FC75FC731C703C7D5C6A8C67CC650C696
:1017B40025C6FAC5D0C5A7C57EC555C52DC506C560
:1017C400DFC4B9C493C46EC44AC426C403C4E0C30A
:1017D400BEC39CC37BC35BC33BC31CC3FDC2DFC28C
:1017E400C1C2A5C288C26DC251C237C21DC204C2E1
:1017F400EBC1D3C1BBC1A4C18EC178C163C14FC108
:101804003BC128C115C103C1F1C0E0C0D0C0C0C0F4
:10181400B1C0A3C095C088C07BC06FC064C059C0AC
:101824004FC045C03CC034C02CC025C01FC019C027
:1018340014C00FC00BC008C005C003C001C000C065
:1018440000C000C001C003C005C008C00BC00FC069
:1018540014C019C01FC025C02CC034C03CC045C032
:101864004FC059C064C06FC07BC088C095C0A3C0BE
:10187400B1C0C0C0D0C0E0C0F1C003C115C128C10F
:101884003BC14FC163C178C18EC1A4C1BBC1D3C127
:10189400EBC104C21DC237C251C26DC288C2A5C207
:1018A400C1C2DFC2FDC21CC33BC35BC37BC39CC3B9
:1018B400BEC3E0C303C426C44AC46EC493C4B9C43B
:1018C400DFC406C52DC555C57EC5A7C5D0C5FAC597
:1018D40025C650C67CC6A8C6D5C603C731C75FC7D0
:1018E4008FC7BEC7EEC71FC850C882C8B5C8E8C8EE
:1018F4001BC94FC983C9B8C9EEC924CA5BCA92CAF5
:10190400C9CA01CB3ACB73CBADCBE7CB21CC5DCCF1
:1019140098CCD4CC11CD4ECD8CCDCACD08CE47CEEB
:1019240087CEC7CE07CF48CF8ACFCCCF0ED051D0E9
:1019340094D0D8D01CD161D1A6D1EBD131D278D2F8
:10194400BFD206D34ED396D3DFD328D471D4BBD41D
:1019540005D550D59BD5E6D532D67FD6CBD619D76B
:1019640066D7B4D702D851D8A0D8EFD83FD98FD9E9
:10197400E0D931DA82DAD4DA26DB78DBCBDB1EDCA1
:1019840072DCC5DC19DD6EDDC3DD18DE6DDEC3DEA1
:1019940019DF6FDFC6DF1DE074E0CCE024E17CE1F9
:1019A400D5E12DE287E2E0E23AE394E3EEE348E4B2
:1019B400A3E4FEE459E5B5E511E66DE6C9E625E7DD
:1019C40082E7DFE73CE89AE8F7E855E9B4E912EA88
:1019D40070EACFEA2EEB8DEBEDEB4CECACEC0CEDBE
:1019E4006CEDCCED2DEE8DEEEEEE4FEFB0EF12F090
:1019F40073F0D5F036F198F1FAF15CF2BFF221F30D
:101A040084F3E6F349F4ACF40FF572F5D5F539F641
:101A14009CF6FFF663F7C7F72AF88EF8F2F856F942
:101A2400BAF91EFA82FAE6FA4BFBAFFB13FC78FC18
:101A3400DCFC40FDA5FD09FE6EFED2FE37FF9BFFD8
:101A440000000010A116B61B0020C7233127552A19
:101A5400412D0030993211356D37B039DE3BF83DF8
:101A64000040F841E243BE458E4752490C4BBC4C02
:101A7400624E005096512353AA542A56A35716591E
:101A8400825AEA5B4C5DA85E00605361A162EC631C
:101A940031657366B167EB68226A556B846CB16D0E
:101AA400DA6E00702371437261737B749375A97647
:101AB400BC77CC78DA79E67AEF7BF77CFC7DFF7E25
:101AC4000080FF80FC81F782F083E884DE85D28683
:101AD400C487B488A389908A7C8B668C4F8D368E9C
:101AE4001C8F0090E390C491A492839361943D95DC
:101AF4001896F296CA97A19877994C9A209BF39BD3
:101B0400C49C959D649E339F00A0CCA098A162A222
:101B14002BA3F4A3BBA481A547A60BA7CFA792A888
:101B240054A915AAD5AA95AB53AC11ADCEAD8AAEC6
:101B340045AF00B0BAB073B12BB2E3B299B350B4AD
:101B440005B5BAB56EB621B7D3B785B837B9E7B915
:101B540097BA46BBF5BBA3BC51BDFDBDA9BE55BFDD
:101B640000C0AAC054C1FDC1A6C24EC3F6C39CC4E2
:101B740043C5E9C58EC633C7D7C77BC81EC9C1C90B
:101B840063CA04CBA6CB46CCE6CC86CD25CEC4CE48
:101B940062CF00D09DD03AD1D7D172D20ED3A9D37F
:101BA40044D4DED477D511D6AAD642D7DAD772D8A0
:101BB40009D9A0D936DACCDA62DBF7DB8BDC20DD9D
:101BC400B4DD47DEDBDE6EDF00E092E024E1B5E168
:101BD40046E2D7E267E3F7E387E416E5A5E533E6F3
:101BE400C1E64FE7DDE76AE8F7E883E90FEA9BEA35
:101BF40027EBB2EB3DECC7EC51EDDBED65EEEEEE21
:101C040077EF00F088F010F198F120F2A7F22EF3AC
:101C1400B4F33BF4C1F446F5CCF551F6D6F65BF7D4
:101C2400DFF763F8E7F86AF9EEF971FAF3FA76FB8D
:101C3400F8FB7AFCFBFC7DFDFEFD7FFEFFFE80FFD2
:101C44000000290051007A00A300CC00F4001D011B
:101C540046016F019701C001E90111023A026202D3
:101C64008B02B402DC0205032D0356037E03A70393
:101C7400CF03F7032004480470049904C104E90461
:101C84001105390561058905B105D905010629063E
:101C940051067806A006C806EF0617073E07660732
:101CA4008D07B507DC0703082A08510878089F0840
:101CB400C608ED0814093B0961098809AE09D5096C
:101CC400FB09220A480A6E0A940ABA0AE00A060BB9
:101CD4002C0B510B770B9D0BC20BE70B0D0C320C2D
:101CE400570C7C0CA10CC60CEB0C100D340D590DCB
:101CF4007D0DA20DC60DEA0D0F0E330E560E7A0E93
:101D04009E0EC20EE50E090F2C0F500F730F960F87
:101D1400B90FDC0FFF0F2110441067108910AB10AE
:101D2400CE10F01012113411561177119911BB1104
:101D3400DC11FD111F12401261128212A312C31290
:101D4400E41205132513451366138613A613C6134D
:101D5400E61305142514441464148314A214C11442
:101D6400E014FF141E153D155B157A159815B7156B
:101D7400D515F31511162F164C166A168816A516C6
:101D8400C216E016FD161A173717541770178D1759
:101D9400AA17C617E217FE171B18371853186E1820
:101DA4008A18A618C118DD18F81813192E1949191C
:101DB40064197F199A19B419CF19E919041A1E1A4A
:101DC400381A521A6C1A861A9F1AB91AD31AEC1AAC
:101DD400051B1F1B381B511B6A1B831B9C1BB41B3D
:101DE400CD1BE51BFE1B161C2E1C461C5E1C761C04
:101DF4008E1CA61CBE1CD51CED1C041D1B1D331DF6
:101E04004A1D611D781D8E1DA51DBC1DD31DE91D18
:101E1400FF1D161E2C1E421E581E6E1E841E9A1E68
:101E2400B01EC51EDB1EF01E061F1B1F301F451FE4
:101E34005A1F6F1F841F991FAE1FC31FD71FEC1F8C
:101E440000200000816807E002681168536889185F
:101E54005B18C36008320260C2689142F4D04A1C25
:101E640082600878704738B504460D46A068E1687A
:101E7400884212D120686168884208BF00F0C3F824
:101E84002068227C016802B14944A160426852186A
:101E9400E260083091422060ECD0A068401CA06051
:101EA40000F8015D31BD2DE9F0418AB000F108016F
:101EB40005910268520801EBC201069100210791C5
:101EC40008910168490800EBC101083100910179CA
:101ED40001F001018DF8101040680099400801EBF1
:101EE400C000019000200290039084E005A8FFF751
:101EF400A9FF044614F0030603D105A8FFF7A2FFC7
:101F0400C61C25090F2D1BD105A8FFF79BFF00F167
:101F14000F0515E0059801680818059907904968A8
:101F24000818089005980830059007980899884281
:101F3400F0D0401C079010F8011D00A8FFF793FF94
:101F4400761EF2D1002D51D005A8FFF77BFF06467F
:101F5400A00800F00300032804BF05A8FFF772FFE0
:101F6400DDF800800299039F06EB002008E0A8F149
:101F74000808A8F10801801A0A6849688F183946C8
:101F840058F8082C8A1A8242F1D30C1AAE1C2DD0B0
:101F9400BC4206D158F8044B58F8040B0719BC424C
:101FA400F8D00298039914F8015B884217D100987D
:101FB4000199884208BF00F026F8009800689DF84F
:101FC4001010029009B1484402900099029849689F
:101FD400009A09180832884203910092E7D00298C7
:101FE400401C0290761E00F8015DD1D1029803993D
:101FF40088427FF47BAF0198009981427FF476AFE9
:102004000AB0BDE8F081012000F000B880B5C046F8
:10201400C046024A11001820ABBEFBE726000200AE
:1020240070B52548006880F3088872B623480068B4
:1020340040084000214908602048006830F09000C2
:102044001E4908601E48006830F480401C4908603E
:10205400BFF36F8F1B4800681B490968090C11EA1C
:102064005020C00703D55FF4803017490860134837
:10207400006850F09000114908601048006850F062
:1020840001000E49086062B6002004000A480500F9
:102094005FF080500600B4F5117F05D228783070C7
:1020A4006D1C761C641CF6E7C046C04600F00EF8B2
:1020B40000F026F8FEE700BF001000181080024070
:1020C40010600140148002401C8002404EF688518A
:1020D400CEF20001086840F470000860BFF34F8F2F
:1020E400BFF36F8F4FF00070E1EE100A70470000ED
:1020F400DFF800F011E70010DFF800F0C7E9001086
:1021040000F00BF8002801D000F00AF80020C046C7
:10211400C046FFF7EDFFFFF7EFFF01207047000017
:1021240010B5074979441831064C7C44163404E050
:102134000A68081D511888470146A142F8D110BD0C
:1021440088000000CC00000000000F000000010027
:10215400000000000000000001000F000100010069
:10216400020000000000000002000F000000010057
:10217400040000000100000003000F000100010042
:10218400060000000100000019E050F8041BCB0712
:1021940044BFA9F101035918121F0023042A41F86E
:1021A400043BF9D25FEA827C0B4604D54FF0000C65
:1021B400A1F800C09B1CD10744BF0021197050F83E
:1021C400042B002AE1D17047C1FFFFFF4443000004
:1021D400F801032000000000CFFCFFFF0200000014
:1021E40002000000380000003B0100000000032052
:1021F400F8010000B3FCFFFF020000000200000031
:1022040057010000ED8F00004402001086E7000033
:10221400C046C046FFF75AFFFFF772FF1003005095
:1022240000400C04121004121404121C04122004A2
:10223400122404123404123804123C04124004120E
:102244004404128004128C04129004129404129C0C
:102254000412A00412A40412B40412B80412BC049C
:1022640012C00412C40413005160110412100412A9
:102274001404121C0412200412240412340412380C
:1022840004123C04124004124404128004128C040C
:10229400129004129404129C0412A00412A40412B6
:1022A400B40412B80412BC0412C00412C40413000F
:1022B40052601104121004121404121C041220049B
:1022C400122404123404123804123C04124004127E
:1022D4004404128004128C04129004129404129C7C
:1022E4000412A00412A40412B40412B80412BC040C
:1022F40012C00412C404800300C002400001F003B1
:102304001C1800002000019002E000402C0F525ED7
:1023140014124804210B120104525F145264141263
:102324000F04220C09428010121004220D09428469
:1023340010121104220E098288445202287111439A
:102344000400012004500140E0570117100218FF57
:10235400FF1F041102110D40100100DFF8940B005F
:1023640088088008884FF6FE7210400A52FD0A1051
:1023740004DFF8742B10800610060B88600FF2310E
:1023840010C8061007A51008610FF259204806105E
:1023940001F120880610011D30C8061007693008B5
:1023A400620FF2B130480610010540880610018D15
:1023B40040C8061007195008630FF2BD50480610B4
:1023C40001F150880610016560C8061007DD600839
:1023D400640FF2517048061007C97088640FF63D07
:1023E40000C806100D451008650FF685104865DF16
:1023F400F8600C880630015C0CC80630050866DFFE
:10240400F8580C48061288063001540CC8063005EA
:102414000867DFF8500C480612880630014C0CC8D7
:10242400061001C1F880E01248081284081244081A
:10243400128808124008128C08123C0812900812E4
:102444003808129408123408129808123008129CA2
:1024540008122C0812A00812280812A40812240832
:1024640012A80812200812AC08121C0812B0081294
:10247400180812B40812140812B808200D740DC1FB
:10248400F8BC0001207047000010B50452100D0A7A
:1024940000882080207810F0010000282ED0B41489
:1024A400020D008860581250081016A08060880041
:1024B40005000D2C2813DA608880B2000B80B2026C
:1024C400280DDA9224180D61880905090D14EB8191
:1024D4000109698847208850F00200208004E02028
:1024E400A410017108405625B8510A100BDFF8C832
:1024F400190880012010BDF0B402781007F85C6D53
:1025040088ADB22D0B2B0C102DEC5C2D7915F00140
:10251400052C00A4B2002C1ED15588002D0AD10030
:1025240025DFF8D86C9BB2382707FB036635850195
:102534002529003AE05588011C12011CD2BC1C104C
:10254400012CE00206100429E0DFF8A05C1A100652
:102554002606FB03552D8D55CA82901013889510BD
:1025640072801010016D88D5107270101402AD883D
:102574001581DA71102002ED8855815C24021180E6
:10258400F0BC3441BC923CBCB230BC1213BC10034E
:10259400142D0DDA55F0121CA0200241F62837A2A2
:1025A400200441F6D827BD534A3227A61224A63365
:1025B400FC5B202236681120200126755BAC73E495
:1025C4005B9C2289AC72D410232D89AC72C410B0E8
:1025D40001AD89159C32309C83A05B9CA3945B9CC9
:1025E4001602364002290001E0349230D0926C3455
:1025F400B26034100109D195CA2008506B5788166F
:10260400FA87F635803C1208BC2406405B568815D0
:10261400FA86F550F50120921C50D21050600355F3
:1026240068DFF8005062605053F05A503368551414
:10263400C15083CC5A50A3C05A501C030CD1D2E9C8
:10264400015003200CB05AB2F802C015FA8CF5C53B
:10265400E9006742120A5652985612D51412C2283B
:10266400815A41581007746A7688B6B2360B330C17
:102674005007686A367916F0010634581003B2F927
:10268400026035186B546A662005F5810126310015
:1026940026FE71141401F6895694123010329010EB
:1026A4001003B6F87860961287206AFC1003B6F817
:1026B4007C64D614B20C14300178641650A1908353
:1026C400E46990F305D869907BC469F662829072DC
:1026D400B01423368A9083A06990327A90A39069CB
:1026E4007C327E90B27C14F2027A90925490D2485A
:1026F4009043D2F89072347C237561401234907206
:10270400201410017669C228190671921003F66F1D
:10271400C2F8061283FC687E1005D6F8A466C2F8D7
:102724000A16B2E81612A016120E16B2D0168004BB
:10273400B062C2F81260AC3270AC83A868ACA39CDF
:1027440068AC56053C21324301E0387270E4927063
:1027540038F705646874635068D023B58340121C4D
:10276400E4723C1427B68B74872C68743684749294
:102774001CB6E404B6F87465D6806083F4677CF311
:1027840005E8677C7BD46780717C72C01432F67C68
:1027940083B0677C32867CA3A0677CF202767C924D
:1027A400787CF2066C7C7258686335847C724414BD
:1027B40023368C7C92347C32887CB2247CF202787E
:1027C4007C83FC667CF305F0667C7BDC6658717C5C
:1027D40072C81432767C83B8667C328A7CBBA86665
:1027E400D4F1027C92807CF206747C72606872B5CB
:1027F4007C724C1432B67C923C7C328C7CB22C7C45
:10280400F2027C7C92047CF305F8657C77E465F045
:10281400317C12637C72D01432F67C83C0657C32C6
:102824008E7C12B012ED7004EF9C657004B001DF71
:10283400F8881410017E645614B274142C017A645E
:10284400960207B1141001F062D614924C141C04C1
:10285400D6F8E8621661A008B1141001E4625614B7
:10286400922414840616F5E456368816830A6DD429
:102874000587F8640CFF05EC645C0477D86488AEC3
:1028840061BE03414810052DE9F04F0400252810CE
:1028940007AC24528892B2120B160C141AA02412FC
:1028A4007912F0010293461FFA8BFBBBF1000F4033
:1028B400F09680B5F902209246002324B69C1007B6
:1028C4003303FB0622A2F854A4FE91121C02B2F8B0
:1028D400A8210604323412100A3C0CFB0633B3F868
:1028E40096315A431758A24C28101CF9542443F625
:1028F400921312FB03F25212914689FB0723520BE7
:1029040042EAC3425B131000192EB220563C26A2A1
:1029140021002301F099FB002906DB02DCB0F5005D
:102924004F02D347F6FF7207E0002904DC01DB0005
:102934002801D2002200E0040682337E1C02A3F8A0
:1029440058240204A2237A211292C0241001B3F85D
:10295400C8A2400B642392FBF3F217003A01DFF89C
:10296400A41E158010040633D3F84C341A23F7B789
:102974007422DB74200404E0002F01D56EA0023A17
:1029840000DE4B6CA0085C24012290460AE0D84A81
:10299400BC200254246A80186410A5F80080BDE8A5
:1029A400F08F000004000064450200108067CB4AE9
:1029B4007EF701C94A7C568D7C92C356B003A2F8B7
:1029C40056A4BF66F40201AA21BB4B76A2B624F733
:1029D4000CF95674F701AB4A72F711E0FA72B69D1E
:1029E40004B0015A249974F402095A24954B6CA733
:1029F4008E4B6AF60A506AB28366565E6AB27EB439
:102A0400D6566A101BE50D0010A90F001025110001
:102A140010A1120010C9140010F11600104F170075
:102A240010AD0410070B18001055190010B704104E
:102A340003191A00107B0412DB041003391B001065
:102A4400FD0413C11C2010021D00109F0412E90490
:102A5400100B391E0010B91F00100920001071045A
:102A640087A923C4765AC4F60458C427D5F8C49257
:102A740052B0B003C2F84CA44EC0F40102A8214ADB
:102A8400C4B64550FD0D3803F6023AC4F711FEF9F9
:102A9400C4B62C5EB00158242874F4010A582424C6
:102AA400C4B61DC4FD0B2E03FE02122E0390010BAF
:102AB400E00D6C1ED2260416C52ACD300316F76825
:102AC40010030008006402041204048C06F041039D
:102AD40020F8010320C0048F042DC004F701F82C52
:102AE400805697801D680EA62E821E50C004924800
:102AF400122D48031D9405F6013E861D9204A1285B
:102B0400FD0E4C031D9A08F6012D8AF612398A1D12
:102B14009407A63D261E5AAE04A2A84C22F912F729
:102B240009943D901D9A08A63D92FD0B56031D96EF
:102B340005B16E4D58031E0C3207923474F4010033
:102B4400D2F8509614012DE9FE7C1226423C0188ED
:102B54000B40D80E12070C2C027C0B0079080F16C0
:102B6400807C340188F8B87C1405EF80B6F9020043
:102B7400817C2001E00CBF541C0D3101FB0700A037
:102B8400F866961820019001AB960891181401D0AC
:102B9400F8B08292B4121402B0F89C11B820050D5A
:102BA40001F032FB824630B2981E1C04B40110F1CD
:102BB40064029808A1161006F96616504601F01929
:102BC400322C080020029002AB41F270726610A110
:102BD4003A12A658424C12150021122010960101F7
:102BE400F0FFFA834618200090029B5A460199464A
:102BF4001F9AFB9407321C2810083202FB0711C1EC
:102C0400F8780600BC21262190B208561C066806F6
:102C14000A2101FB00F29A09A20B181F6E169409EF
:102C2400820B6E12D046140201F0B0FA00A21B5CB3
:102C3400177C0600B13A1C046406002824D19A07C4
:102C44009116213EB001DFF88C3A128812B27C242E
:102C5400214CB2682414018C0623DEB2542612805F
:102C640026F200444AB23024128412D2204A1003BD
:102C7400012005000B4EB208AE2002660670801AD1
:102C84001A35289AF7288B600928FB0B54092883E6
:102C9400B80A507801A0F8682892A0184928928CA4
:102CA4001249284804340B01F01EFA28B2701E6938
:102CB40028A258165928CB05FA28B2343A292842B2
:102CC40024129928EBEBF9281686CCA7FC1924C901
:102CD40028A3E009568928B2C818292883B4096EA4
:102CE4004928179CF900B15C25DCB28C3A6928921A
:102CF40078164928B2643A25DEB25424214CB240F5
:102D0400244928B22C262928F2001C4AB208242976
:102D140028C3F8184A6928C7E00800A9285D1812D2
:102D24009D540DBE30540D7E0EE00B8F1C6D1E0B9A
:102D34002C02A6F87056D20A215E920418FC0300F5
:102D4400B6F87066563E0C9EE03E0CF305D4665E03
:102D5400A3C06C5E72725E92A818FC031AB6F87275
:102D64006656180D815EB2605E72745EB2485EB2E1
:102D7400745E4C022DE9FC4742038F20064203FF98
:102D840001140642037E7F42039EF8920328064103
:102D9400F6522121F800908A5A008ABED8B2031C48
:102DA400039C2140F25B4E039EC49E0411366809C5
:102DB4002C3CF9000001F055F88246C2CD82049CF7
:102DC4000D9C225FF48011504600F031FFDFF8843F
:102DD4001E041C0311F5D351087810B2708818052D
:102DE4005021085A002814A2925818CC0410F5D384
:102DF4005000688204CC0641F66822505013E086E5
:102E040004180441F66421085802F1002A29482DC7
:102E1400B606D200F88B085A6447F387A89ED838C0
:102E24000DBECC380D760FA89EB86A122C0141F65F
:102E3400587A1415902162D2A01AFB01BE5B0A9243
:102E44007862F2066C62B25848925A62D23C1AF125
:102E54000362921462F2060862A3F46948925C6207
:102E6400D2DC1AF1036263B46362F305EA4E609242
:102E74009446600416F5D556358060D27C1AE33644
:102E8400886063D54E5EF206D25EB238A4929EBECE
:102E9400D21C1AC1BE1D140A3D2E036FBC482C035C
:102EA400EFBA482A031C053DD1D6F8020082280354
:102EB400ABD008301C04A82141F800A01817B116A3
:102EC4001007A221085CC0B281464A30B2A01A1889
:102ED40001A421098E428C14433303441C04231897
:102EE4005801F0F3AE05AB7418A65AB0A6120DC281
:102EF400D25C7610010858C69069A863F087C47242
:102F04008BC4F20A89C4B20C4E52ACC4F307F8075E
:102F1400C4F301DC07C4A3C807C432ACC41291C40F
:102F2400A3B017C492B4C4B29846F200ACC434152A
:102F3400F8B502005B4F7F88BFB23F0B3B00594F8F
:102F44003F7917F001073CE6100732D15788ADF8F6
:102F54000070BD04100AC7F30427BFB2142F06DBA8
:102F64001427101003E067F30C2E1C6003E0002705
:102F74003D00201C122DB23FB2BD420EDA6F1C7F01
:102F8400003E0036B252F816709A19200DC72DB2C1
:102F94001CEB850CCCF802706D1CE8E72E1D0606B0
:102FA40013C7AC0810030127390005A62004F476E2
:102FB4003F8857800E14021180F1BD584E414A05D6
:102FC4009EE04A05FE00D44A05200806D1311D7052
:102FD4008801F080FCD04305E00E7306FCDE82819C
:102FE4004A92984AF2088C4AB2394AF303C1FB4A1E
:102FF400924C4AF208404AA3D5FB4A92564A1D18FD
:10300400124E41140D439DB05283FC0552E3F0056A
:1030140052101B6DD170888DF80000B088F1885172
:10302400EA0040019030898DF80800002083469D15
:10303400181E0F3E0D200400B283450DDA0A200647
:1030440016EB4B00408900A90C200A1BEB01014838
:10305400721BF1010BEAE72A100116EB401C500326
:103064008DF86D00013C23401D282002584521DBCA
:10307400084004BBF1020F19D00A2002030F0ED13D
:103084000A300836F81B0080B21AEB102A5E110EC3
:103094003006C0B210EB0A0A05E01E1EF97F0F11BC
:1030A4000E21641007D6E75FEA0A6002D000EA1D29
:1030B400C01211061011ADB2012D43D100A801F0C8
:1030C400E5FB81460FFA89F9B9D01D9E19111C231D
:1030D40037E028E334E0DC212E8323FC2E2321D1A6
:1030E400A81D1E06100298000CB006F301F080F82B
:1030F4004300A8EE11D0567A044001010881F8215A
:103104006C32016C4C0235801DB0A80E4D940E47F4
:10311400F8437E877C047EE770047EE0040DD101D1
:10312400F021FCBE8304E0E625D64FF1838E059E94
:1031340030F0057E24F0051D16187DE0131C07B63B
:10314400F90660002E02D0030A05AF13E0760814D6
:10315400092DB2002D01D172B603E02D38CC040044
:10316400D162B601260A144C02847D670004188FCC
:10317400C853281AFF01BC53FC1A2F84E13E1C10CB
:103184001F44D0C0F07E81032D54D049D3052D6552
:10319400D05AD3072D76D06BD3092D00F087807BCE
:1031A400D30B0810059780C0F08B800D0A12A60A75
:1031B40010019A800F0A12B50A1001A980110A128F
:1031C400C40A1001B880130A12D30A1001C780156B
:1031D4000A12E20A1001D680170A12F10A1001E558
:1031E40080190A10050881C0F0FE801B0A12170A14
:1031F40010010B811D0A122E0A100124811E0A3CA3
:103204000431813AE1C34D0E063D041CB007B5F804
:103214009451958030E1BE14129614B00126E1B9A0
:1032240014129814B0011CE1B414129A14B00112CF
:10323400E1AF14129C14B00108E1AA14129E14B058
:1032440001FEE0A51412A014B001F4E0A01412A22F
:1032540014B001EAE09B1412A414B001E0E0961447
:1032640012A814B001D6E0911412AA14B001CCE053
:103274008C1412AC149001C2E087141001D5F8B07C
:1032840014B001B8E0822812B414B001AEE07D1489
:1032940012B614B001A4E07814B005825395809A54
:1032A400E07314128414B00190E06E14128614B00A
:1032B4000186E06914128814B0017CE0641412FEE3
:1032C40014B00172E05F14C0050054958068E05AA0
:1032D40064B0045295805EE055C8129C14D2511219
:1032E40010052D14D5804AE04B166DAE1DB0039524
:1032F4008042E0474C120C38B00138E0421412A06E
:1033040088B0012EE03D4E12A414D2391270052D5E
:103314000CD5801AE033602D2E1E700112E02F10A0
:10332400122D1090010AE02B364D641E4C0295803C
:10333400FFE7081D2D041B2D38036F244D36036F42
:10334400224D3403721D481C04B5F90650002D9A11
:103354000311342C020BE072B64E031E054E034FCC
:10336400184E0E1EC301E04E72114E720E4E8D8227
:103374000310010AE0075A32905A1C02D5F89450FF
:103384001E1C8250404D84042C021C4403200C0655
:103394001C143445032013F0004C03D55B42524205
:1033A40063F100039CEA210C4C0370148010B56493
:1033B4004603D34942404261F1000100F00EF86433
:1033C400000410832442321C1E10BD00001B421353
:1033D400D1094236D12AB18446B0FBF2F002FB1087
:1033E400C2704701F0F9B9FCD348121C0823704796
:1033F4000B00020000210016211030904271EB03F3
:103404000CF6D370B5B1FA81F4B3FA83F52C1BA38F
:1034140040C4F1200532FA05F63343A2405FF000C0
:1034240046E64002E05B085FEA3202841A30100E7E
:103434000524BF204629467641F4D302000B003010
:103444004C200A70BD012ACFD970B5140C20D04A83
:103454001002B2FA82F5462008046419B4F1200679
:10346400D6D3B248100644F440002502E0524A1074
:10347400013303C64A300B020E24BF304671466442
:10348400416D41F34C1C012000296908201B0C46A6
:10349400B1FBF2F102FB11452D0445EA1045B5FBE1
:1034A400F2F402FB145580B240EA050E21D4100454
:1034B4005240EA044070F01E4304071017521E01E4
:1034C4002A07DB8B4224BF401C5B1A40005B00527E
:1034D4001EF7D18B4228102370472221206340001D
:1034E40022C120101730B4884203D21468641C40EF
:1034F4000014600024012B08DB1D466400882E1193
:10350400141150126D2E12882E2C0A641C10685946
:103514001E081810602046522010230A0E82B0099B
:103524000281FB0001CDE90001084640FA02F1895D
:10353400100129A8BF4FF080600FDA11F1010FB814
:103544000CE0187C4009DBC2F11801884000992185
:10355400FA02F3D909491C00EB510002B0441C05DE
:1035640041FA02F0401101802252103C20016040D7
:103574000F3CC0030001FA00F03E1005B0F1005FFB
:1035840001DB6F222148C002FCB40C0E8C20020423
:10359400F155688C500305F10070188C12A50C20AD
:1035A4001212DB009F1668C4F119018F40BF19176E
:1035B40060B742B6419A1047401921FA04F5F60F54
:1035C40000EBD51050FA86F050605168994203DB45
:1035D40000201060536005E00698814202DA002161
:1035E400116050605068F6BC401C4010704742B1F6
:1035F4005318891A834201DA184670478842B8BFC3
:1036040008081C06FCB4002B14BF1D68F115140136
:103614002818BFD7280AD02AB90BB1002018600097
:1036240020F6FC501224002844BF40420124002903
:1036340044BF494284F00104A1BC3003002A44BFC2
:1036440052122C06084601281FDB20218415200372
:103654003CBF0004100A120F0A1001020839FE12BE
:103664006F0A240101091F0830233CBF8000891E12
:10367400B0F1804F009E3CBF4000491E26FA01F77E
:103684003E186D1A1FE0009801281ADB0646B6465C
:10369400300336041035B646300336020835B646D4
:1036A400300336012D1DB6461003B600AD1CB646D8
:1036B400300B04D276006D1C01E06D1E4608B23852
:1036C40030031204103DB23830031202083DB23800
:1036D400300312012D1FB23810039200AD1EB23810
:1036E40018013CBF522E200296423CBF40380300D2
:1036F40020172196741AB6461276963801F7D19699
:10370400761C1406991735002960D0012911DB4273
:10371400106D1E681A2028A8BFA0031C012D03D514
:103724008E081C0424002510E0A9460B1C036D1A06
:103734002A410D3C1925BE230ED12A140605F18019
:1037440000FF2884BF5A100C2204B1524210020018
:103754000A00EB05603C24100A020F13D1B5F110E6
:10376400020ED0182A4E1404200ADA12F107F610B9
:10377400116FF0004004DB002A52BF10415142880F
:10378400401025232E2805180F0FD1002D48AC20FA
:1037940003701AD4212D32140916DAADB1691E4012
:1037A400FA01F250DE30040FE08001A91D22180254
:1037B4004009D4214C1DF2087002DA21B1492224B7
:1037C40008002504B1404203B11D60D610297CB520
:1037D40004462002241601940012069C03B105E05D
:1037E400FFE7009401ABFFF7F7FE76BD1D68019E6D
:1037F40075191D600094FFF7EF10180210B582B020
:10380400142003241C60049C14C006E5FE16BD307D
:10381400B583B0447206444006D5FE03B030BD0102
:103824009D4232CE0E4B70B460280486B000D02284
:10383400B960F8010206B070604B641C5E5A045E05
:103844003001641CA210680302010598A27838169E
:103854009A0399009E0298019D8A18B24200D300EF
:10386400D26D1C05B30021B5001A2D7E3AB500387F
:10387400032D020831B50038032D01091DB50038A8
:1038840003AD00891CB50078206D00491CC1F120EE
:103894000022FA00F67019403948E0002A26D003C5
:1038A400D56FF02001500841E00021507A21506A80
:1038B40031506B091D506B891C5021501C011F0590
:1038C400209205180402EB56002039D21008280370
:1038D400D54FF0FF3140081950FD021E037E311E02
:1038E400037E1D1E03331CB0501D1C0314041C1A3C
:1038F400688918192A1403E10770BC48262D0405A9
:103904001DEC119405BF002A002062D03C552C7395
:10391400C91A64F217316471E67239E67239E67DC8
:1039240036037E8936034002491E90423A1C030046
:103934002316259036031C015B1C80AA054D7E05C9
:103944001C019042010D1C10010299281628014205
:103954001A20DE2007238142BCBF13410846AE3C37
:1039640010524B0020E10748BF5B421902090A01CB
:10397400EB0060F225100B2110F0704F02D0020E04
:10398400000222E00C20186F03D0020D0221000374
:103994001BE010F4700F04D0020C0421C0F34E009D
:1039A4001810122F1E20040B062100050C0E124FB6
:1039B4000E20040A08210006050E126F2C1C0A09A9
:1039C4000A210007400C02E002460C40071C0B369B
:1039D4004B92B233F812C0FF2AAEBF4FAC191C1A77
:1039E40003EB42025288A2EB0C0250430CEBE03092
:1039F40029B101224B1E9A40121822FAA00E2EB2AF
:103A0400320824060029024645D0002A7618010B04
:103A140000489A100B80B289B288421CDAC0039025
:103A2400FBF1265035C109FF29204D00F07F00CC61
:103A3400BF4FF480744C1CA4B235F8144035F8110F
:103A440010C0F18006604306FB0100C009002B236F
:103A5400D5C0F5004020E0C90391FBF03AF21412FE
:103A64003A100554BFC0F5804000041301E02A4019
:103A7400014070BC9221A41C12FFFF7F00441A0075
:103A840018441C001801B970473CB4801A56061C2F
:103A94000345E30D5B1C2603140C455B0813EB057F
:103AA4002109D10128A6BF01061407C00F52FA81CB
:103AB400F1081A3670238818061D8A062C01682C12
:103AC400B928063C015160911804200E93681668C9
:103AD4005D1CA0EB6500871B84FB074548101200A2
:103AE400A82C46009DED0D6D1C6D0815EB042408F3
:103AF400D1012F521DFA044017FD0F56FA84F464C5
:103B04001B00E0A41914604C681568210E2402847B
:103B1400FB05381C1C9E5568C1F11904A640761992
:103B24005660AE424068AD41A040C018009B23FAE5
:103B340001F4EDBE061ED4BE061C0485F090604060
:103B44001CA4061DA2068003FCB50C682490400248
:103B5400BD9368178E400605A5EB070E84FB0E582F
:103B6400C2AE901C010AD1BE7405419250034FEAC3
:103B7400DE75579432E494600617684FEA146E2495
:103B840002CE1031DDF800C05468CEF119050CFAEC
:103B940005FCA444C2F804C0A445766806FA05F5F9
:103BA400A441EB18009D25FA0EF5E40F03EBD513A1
:103BB40053FA84F393605A828C0462008968C01BB0
:103BC400B40718060099C90D491C4908C013200000
:103BD4001ED00DF6BD82B0A9B11368C3181360815D
:103BE400FB03261211261C0805D123B1012BACBFFF
:103BF400012010044C0330191A11600C0810010B39
:103C04006813F24002516032E03E300750680D689C
:103C14001C1A85FB04AE3C21E60D761C760816EBD7
:103C2400052507D1984205D09842BABF0125002640
:103C34000126AD1B2D1855604968084C08100A056B
:103C44006726FA00F5C0F11804E809381F6707541D
:103C540008F00401401C11EB50007825E82178128B
:103C64001B7816916A43F5E77A12577A63DC1B7A5C
:103C7400C564100107D19F7E229F7E15661405013D
:103C840025641BE719575E87260E5A24062C46C660
:103C9400F11805AC4042700806F6F5096D1C14EBEA
:103CA4005504801224805006341B1B1360896881DC
:103CB400321801E30DA7A21C165B1CA1EB53019360
:103CC400689160401AF6BC18187047030000B508E4
:103CD400462E061C182883B036D012F00F0F05D1DB
:103CE40019181822FFF7EEFA03B000BD12F0F0EA3B
:103CF4000F56A38E1F29BBCC041F5F39D604600E58
:103D04001349800813490918E9E7B0F57A7F19DBEC
:103D14002210160846FF2812D8102805D3009980CF
:103D24000500EB91200A49EBE728B10E12060E10AC
:103D340006100849E4E70098073E2002E0E7002067
:103D440062120001100FF62361003F12060047B70C
:103D5400170077747B017D091D08122E43F80610A5
:103D6400010A9810841E0C70073C0A01094FF47A6A
:103D7400799046002C18BF82102003461E4605D0B9
:103D84001E100106D0B8861F03DAC00B3C17603042
:103D94006066E0322DB8BF322505DB42F211708532
:103DA40042A8BF42F210753A181D041810112A4691
:103DB40021464046FFF76CFC471000AB01221D4929
:103DC400480E1C0265FC41101409101E9A90421002
:103DD40046009A02DA821A174105E0904203DA108B
:103DE40046019A821A11411822C919382A600262BE
:103DF400FA07464C430F4A4C200846FC044600ABE5
:103E04000D4A29464C100F3FFC0199009A891A0269
:103E1400911723014602AA20141C0957FA02991883
:103E240039202909DB18A61B2C2D0FE000BFFB8EBF
:103E34006E2FA0860100FE05F9120299192904DBF0
:103E4400A1F1180218211041029100B90120029930
:103E5400376000EB01607060039E112E83181374A9
:103E64000685B080460F980E9E12160B1224017B15
:103E74009A460E100118BFBA0654010C4691141448
:103E84000107D0BA1416041412B0441C0130608E19
:103E9400EC0514040F0F0BD1322C1C46241C468451
:103EA4001CF003037400270DE0182006284890FB3B
:103EB400F4F40C2714338145143E798619100697BF
:103EC40001AB224A414650DA1401C8FB454816208A
:103ED4000A12580EE7C1FB48F600154810014919AB
:103EE400282A4C04BEF905460197D0194322464CB2
:103EF40027A2FB48200201220D494CF7019BFB48F5
:103F040047B3F948360B4816114824020000127AC8
:103F140048F40605FF827C09F71DDD5E4C100101A3
:103F24004A022C24024C37894154140B4FEA0941AC
:103F3400A2FB0123CDE90323351E3C030498B060A2
:103F4400050413100D01B481B00198411E019100C4
:103F54002808D0169E2D2A0B2C08F5DB0098401E4D
:103F64000090F8E74A04100101B50022120022175C
:103F740004D0801C0F70FFF7E4FFF5E701BD80B5A6
:103F840000F0D2FA32203C032003FF00F043FB0A86
:103F940012E90A100145FB0A0A43D2FF22100DABB5
:103FA400FBAB2000F094FB00F040FB0021010C125D
:103FB4004C0C125904122A04129004123C04125B91
:103FC400044329FB32100192FB0626127B1252276E
:103FD4003242333E13F011041277041223041242C6
:103FE400041210322D7C171E82401514010D001688
:103FF4005D1E07F10A1C038046200C81E41A126E30
:1040040022100174FB0340300955FB4846C0B2003E
:10401400F051FB400820024DFB3800081F49FB9477
:104024000E18040AB6B2B24505381D8F151C12FBD2
:104034001AF1010AF6E700F0EAFA0021B6B2301DDF
:1040440000F0F5740D6302FB0E120F54121C0412DF
:10405400CC161232083236421002BAF1040F425022
:1040640002A800F0244261581C0306DA1AEB05E9A1
:104074001532181812F55A12C53A12E40412033E06
:104084002FB0FAE61A4D3E1881C01281C01680FC8A
:10409400140179FF6448162E52100109FB029E4355
:1040A400F2FABE43EEFACE43EAFAC61C03E6FA007D
:1040B40020829814238AFA722308DA0A231AF876DB
:1040C40023D9FA7612F1767282D0128D7C129A0478
:1040D400126B0412D104127D04129C04126A8C1D0A
:1040E4000D141C07B5FFF713FFFFF722FF5E1F1F18
:1040F400BDF08A0B1C0307000E007F3B0910110062
:10410400A93800FFF748FF02220DF10201B81CFF95
:10411400F7420C300501A9381DFFF73D16100106C2
:1041240001B80C2F37FF94151C049DF801100904E5
:104134009E061C0A609DF8021010EB01209DF803F6
:104144009407100181F0041C2104720520520620FA
:104154003207201E05010D1C050023130000222830
:1041640056101C0310185941C668051C02F7BD38C7
:10417400B5321C33006D8A12288A52038A12A88A27
:10418400F30DFDFE7410012060314025643264405B
:1041940012204032E33423000236212450012880C7
:1041A40031F0170C00CA100821002206C008387F1D
:1041B40000D47E320D061DAD1F2E0EA4161C07283A
:1041C4000C8DF80100280A8D4019100528008DF87F
:1041D40003003018100104003018100105003018D5
:1041E4001E06121174018DF80736960E36760836BF
:1041F40096033663FDFEE2217C300501606D0020EC
:1042040068006E11083170110831722320687265DC
:104214000687E1FE0663DBFEE61F0020921911EC1F
:104224002E28D016320AB422884461FC12C62A28E9
:104234000610B5744BA0227449F82C0305FA040047
:10424400E4B2121BD02052B00D11E06F4A70480145
:10425400686C48006800F0651C300103E0661630A5
:104264000185FB106C11761C02FF0500EDB21610DF
:104274000102D02820100B48E06068614909688871
:104284004204D3602A12610A2C0102D20C1E173098
:1042940004E000AA6168573E633BFA34211A3009EE
:1042A40028E0237814F1090261684F1EB2451E30DC
:1042B4000119E04A16A34CFB16720E3432421EB2A8
:1042C400C9343001FFE73D1623BDF9945232AAB236
:1042D40086AA1239AA5236AAB235AA3226AA322C92
:1042E40042C3E6F98C617632251EB2387630010A73
:1042F400E01F16D2F78C321A1652778C1E706203A6
:10430400B2418A1C0521E040F2FF10068C193007E7
:104314000400A019421E31000D3252727CB0050B0C
:10432400D1002E09D008E8300501D1761EE6E70356
:1043340014324A5A2D08131E2440141003B04203A9
:104344002028081EE8581412EC042D64141402707A
:10435400B46421FC50082310245025794E356000A4
:1043640006727806100340F20135770830034FF4E3
:104374007E4576169275067274062C086A4D2D6871
:10438400280030F00600FC341003664D28606512E6
:10439400100335F04005631E12640C100355F480BD
:1043A40075620C200589B2624D29605E121002F01C
:1043B40020055C12325B0C10011005590C325D367D
:1043C4001007FE05D2B215432800594842535A102B
:1043D40008F4C0601BB250EA03054F26224E261093
:1043E40002F480554C0C524D7A1003700020434A5D
:1043F40030900310252C0047141244142DF60F1688
:1044040041141E50BA1910053F49086070473E0E0A
:104414003003400840003C0E163FF0300531F400F4
:104424007108003D10123B10325110323910100D3A
:10443400344A126852F00802324B1A60374A1004A8
:104444001611121001006236101DAA1E112E120838
:104454006E1205FC10010501291C70017047281417
:104464003225425223421221321225423225423051
:104474000180622642B21B42321842721614321470
:10448400423001C0B21C08212C3003017070471A5D
:104494002030050105FAD57047170C32410C32144F
:1044A4000C300350F4006012305210103001806060
:1044B4000E10100304A002400804120C041210048D
:1044C400121404121804121C0412200412240412DC
:1044D40028041238041258041250041240041F70A5
:1044E400B4EE2C1C0C2C01D0032018E00D483C2504
:1044F40005FB044E1B1DF028500CD004200FE0A037
:104504002A01D207200BE0071A1B1860B61F4D3C86
:10451400DE164C04045568720020D4161A20782D37
:10452400740320012500683A3004D105200AE028EC
:10453400441D281B1EE0D8051C01F0E3F9C9041131
:10454400303E32E41D6DC007500927003869000B66
:10455400B0F101087838500123E0383810131EE018
:10456400A84503D3B04501D3AE4201D2082016E0DA
:104574000321384A2C0A6CFA00950098864208D325
:1045840032006E05200200F075F90620021EFBF3CE
:10459400E708100391FA0120B86A5009BDE8F681D2
:1045A40030B403001C00605C1C030EE0E06881FE74
:1045B40003100BE068081A2569A84201D3062004F9
:1045C400141C03081A000B10A4142D3E1060102DA7
:1045D400E9F14F0C0015001E00009FB046A946A249
:1045E400469A72379A100F32E0F868844205D3383D
:1045F400693119FA68891A88A05001062027A02F6A
:104604001CFAAE0A1E1A3A0920188070BAFBF0F19F
:1046140001FB10A1D1F5807BD84500D2C3464B469F
:104624005A4651462823E9F8062C01C3FA1B461DB5
:104634003006EB0909B8EB0B08E1C27230C223F271
:104644008F904382B092D20292724492F2043F92CB
:1046540052349223D3F9921E29A01D1F0090B41046
:10466400518A2C0100AB0398061120400450F90034
:10467400AB52460C36524C400230F9009A103003CB
:104684005AF95A4649B0527E1A21A861B432D2B0BE
:1046940016D8DC1001BDE8FEAC1001FD4F86AC1C41
:1046A40006069D089E079FA04614096A09107A61B0
:1046B4001010015CE0E8AC700706D328690899097A
:1046C40019EAAE1250AE292A30037CF9002E45AC0B
:1046D4002C025FF0100AF41D1C05BBF1100F0CD264
:1046E4001B6007214C1D200A1D841D1C0102A90BFF
:1046F400E0062DEA1D1001EFE756D052B2D0214258
:104704004004E8F800AB42460C23EAF80623C8F854
:10471400D0210A3003F2F85246020A4316F91A1C51
:10472400035246390002CA091D382B20152802D12C
:104734000920814606E01AEB08081AEB0707B6EBD6
:104744000A06B7E7282F66F984093E09440BC9EA2B
:104754003A03E02B73F8DC1801F0B5C3DA4A0F40D2
:104764002D5C0B2EABFC07122020129E94433A00C2
:104774000C1C10A0F8EF19002D09D0307801A90005
:104784009A5054761C7E0B20051C00906D1EF3E796
:1047940020239BF906326EB4210A2398F8063C03C1
:1047A40073F843B0F0B2084D3C0321601B286866DF
:1047B4001E51A4281C01F728680A141C01FBF1F2FD
:1047C4004219100B02002A0DD12868301A1028094A
:1047D400D318500430286000ABD88820065AF80853
:1047E400E02868401C1452201492509C32526C32BF
:1047F4005A82722D823257161C1032F8F7BD817A14
:1048040000290ED0002181725FF070414E05100125
:10481400F010010A4001421160102C02C906FAD4BA
:104824005A141D780F1DDE061C06944207D2E05C64
:10483400655C6C0315D21C0202E0641C480C3D68E4
:10484400031C04416802228A406C05600D738B408E
:10485400DB4313F47F431A4303689A611A2002521C
:10486400F47F421041141C0510B41C6862541CAE41
:104874001910011C60103E100E30B4140C1D686C2D
:1048840054140A1D686D186C701A1318A20612E4E9
:1048940020215E1D74131C042A23D00468E48C18A0
:1048A40010070668B56005686A620D0A1EF5D6062B
:1048B40010062B00934209D25D5C18200D65056833
:1048C4002D6C15F4E02FFAD05B1CF3E70E10022DCB
:1048D40005FBD5963C0A65066835646408640005E2
:1048E40068EC66062C0510B400230468E3DC0510AC
:1048F4000863046823640368DA610D12100EA36070
:104904000023934208D20468246C6402FBD4086038
:104914000D6D5C545B1CF4E70368DB69002BFBD171
:10492400322140300BA36003685B685B085B0004C2
:1049340068630C200253F001030C21D64DCC091CF2
:1049440004206840686061FE091369E0061007806E
:104954006820622068C0686006300B006EA06100A9
:1049640020216848602068050A2388600632C8064A
:1049740030010866031C2FFF20000A21061D440A8B
:104984001D06096F4AFF060A2374FF0610034FFF32
:1049940031BD1C6A10096069002825D5A069C000D2
:1049A40022062134320034210632020610010300AB
:1049B4002006320446500127FF05463251461C0AA0
:1049C4002CFFA06930F47F00A061A0699406A003C5
:1049D40010A06107E012637000AC23A0699C22E080
:1049E40006200161206AB41260061001C8606012DA
:1049F4004C01486013FE173DC40A41843DC4101D98
:104A0400D10320020DF101016A3201706002E7FE58
:104A1400019A12500110FF018C32341C3EE6DA0B6D
:104A2400523E4A4D78033A06DC2002FFF7E2FE06C6
:104A34004BC8FECA3001FFF7F2102002CDFE05215B
:104A4400081EC198093C03A807E5D537320A41146A
:104A540012B7143C04E807F8D431BD80352E47A4BE
:104A64000B1C0616009846B246A08A20102C03712F
:104A74004843218BB6155C0A0700B7F1807F02DB3F
:104A84007FF07F40B22F1D9A04F003143800286091
:104A9400E0281A684C2002FA702881061C0C6881F0
:104AA400A08A618848430700B5F90800B8301E1190
:104AB400EA0E2C02F0401281B8302C0701400B4062
:104AC400EAC14049132E1D2DBC301405E289002390
:104AD400FEF7E3A62C020B00002BB0306EB2B03010
:104AE4001E70B0303E2BB0301DB8072168400C104A
:104AF40000A881B5F90C00A18E48436421901002EE
:104B0400380129680A8D7230B270C07382E08CF269
:104B1400160A8CF2169D8C12E88CD20E8CF20A695D
:104B24008C1F68824406200760E861E869404228D7
:104B3400621E1FA8822A1B330DE8181C0C686268C9
:104B44006A4042A86244F620602883482F10090D69
:104B540068830020A88500202886081263081002B4
:104B6400640020E81012681012E81012681022A8DD
:104B74000C1E8618411C0100A864142C1F0DE800AB
:104B8400411C031920286501C40627F087F41EF789
:104B9400102F2C071D000C9E0F9FDDF84080241061
:104BA4000688A08528882086020A2C05E08530889E
:104BB4006086B5782B600899B1F90010401A8146D7
:104BC400B9BC2F7B07442D1C020C8145023E4014C6
:104BD40005D8BC00E0CB46B47C340110FB0B40711B
:104BE40028151A1DC22A51281D31071C0CE04846FD
:104BF400A063206CB4F9101011FB0B202C100BE0F7
:104C040069484501DAE06905E0206A810A23206ADF
:104C14002430092064A06B216C10EB61300D7C1EE4
:104C240000C60E12816210011400484A21082004B3
:104C340007E0B4F9160058210831581386B6ACF2CF
:104C44000602AC523484522CACF2060EAC520C2840
:104C54003204AC1001E06360AC5212AC23606AAC65
:104C64003003606A05E0A0AC32A0AC30036064E0BD
:104C74006B61ACB20EAC5218AC3218AC521AAC32F6
:104C84001AAC1004E086B4F93400042A107210023D
:104C9400B4F93610044C012011FB322D1003640CBE
:104CA4008246CA602C02504605E0902549242F48CC
:104CB40046C2121C01FEF7046826200644F6216051
:104CC40081451CDB462D820339B81C0A1382465FDA
:104CD400EA8A3090FBF9FAA778291152F1041C12E0
:104CE400A81C100604E0A08E3880E08E0C2A000E6A
:104CF4002FFE8F0E051A88401A08341A88401D1199
:104D0400061320C81012481012C810124810228826
:104D14000C2E8670422D36051E10A6261290041203
:104D2400D004125004131081081D5A3A1C01A80B18
:104D3400D0BC432002090010612A4D021218030856
:104D44009D099E0A6414012CC0B4A41C0100280609
:104D540010261C052C008646B2F92E882630030541
:104D6400E0B2F9300E12320E1C07B3F92600D1F866
:104D740024A00A4612E7C013A0476C0AA037640AAD
:104D84007C42802E722C2E1E0FD426C00608FB09EE
:104D9400F05FEAE0393A52303A32283A52E03A9235
:104DA400283AF001048EFE0E3A43F8093A3BF00922
:104DB400681D04391600BCE00406A0B0EB0A00A08C
:104DC40052CC2C32C42C2B3880941405B4F902A094
:104DD4000AFA80E8F0010204A010345298343290A8
:104DE4003456AC941C0DF087030045F6C0509880EF
:104DF4004FF4B740983E051C041070D881B3F9B441
:104E04000C100A10D88042F27B40188198885818F8
:104E14001C01804018223C1401100D58861FD882B2
:104E2400261E1D1C0412580412180C125804229831
:104E340004111022D81412841411041298042FD8C7
:104E440084C4031E5822451C011910D84045100182
:104E5400BD10180C4C020900986254441EF02A0636
:104E640012B2C019D64004E070450BDAB30C13C07B
:104E740060AE11081D7C2B2112320A0652B2182191
:104E8400306301E02A110E13E0F43A210C32B30C22
:104E9400313A32C03A17C00AF88118210C313A1F4E
:104EA400C01CE62820025FEA600C643003B0EB0CFF
:104EB400000586210A50010600B30A1607561D5143
:104EC400121DB22121082D620330010200850E1942
:104ED4009C1DA80A23208218B2B0207286203001BB
:104EE40030006020B2B8207287201C053800A082F0
:104EF4000120F018071201C81210041C050A301012
:104F0400FB03F010541C1C090200D013B1F9062055
:104F14008218B1F2041DBA1D1C04DA888906E0B1B6
:104F2400520412820C2FC889FE05F00320C882B1F6
:104F3400F91236F003200883B1F914364F48836818
:104F4400031C01FE4F84140810010598B0D01EAD57
:104F5400A60652060A10050000BDF90210BD0C1C7D
:104F640005FEF72EF9814604DC05100410EB090058
:104F7400A08418311C2D2204112021243D84041EF8
:104F84008384041C03B40B8246DA84041ED1240CEB
:104F94002DB8382F02D5E40C1C0100E0D918191CD7
:104FA40009FEF7C2F883464FF4C0400044053C07AD
:104FB400C0136084A08C42F6ABE80612E00C22E138
:104FC4000E1E22A00B117E1308000C1C0220BDF83B
:104FD4000894051C01ADF80ECC29235C0B0E2002AD
:104FE400891130F9202E0C6E2C1112720E12120A35
:104FF400943C030C0044F6E78E0720048013834698
:10500400608C6890055FEAA03BBDF90A1A32821AE7
:10501400220A1A2C013AE08CE6171C0F022814D03D
:105024000CD304281FD017D3052823D029E00C1A49
:105034000B401E5EE8192004070022E055461023A9
:1050440006000E3E1BE02A411030015F46140E326A
:1050540056201A07DA125D3232061E500107000686
:1050640046211214035746FFE7DB9A2DFC0319A4CB
:105074001F0B1B04172C04B0F5804F02DD8803239B
:1050840007E0101D2E0D1DB20532010C1EAD3215A8
:10509400D0011BEB06249206241206241204248257
:1050A4000724134808182D040E3576220826180301
:1050B4000708BDF906F4360AAED00910F500508091
:1050C40013A083BDF9041413E0831050020018FBED
:1050D400001010012084BD821DD6201F50401403EF
:1050E40012BD6A410C30016082B8081EA008031D7D
:1050F40034091E8B9A0E1C01DAA089DA0A1E8B1C55
:105104000722100E1AE05E3001A08BE02072E1202D
:10511400B2E0201001E08B207060020C00218C2092
:10512400A3208C201801208C609E3E074C0E1E107C
:105134002A0D1C0B022018806420588040F2333062
:1051440058160A3C0210701881E4041D3C06AC0A8F
:10515400D8811888962410FB04F05881BC041DBA29
:10516400051F0998F6491C010900D852062D3E0C6A
:105174002D401B5E891C0E380F1F00DDF84880DDB2
:10518400F85090DDF854A0B8F928543801B8F92A39
:105194004A1EB8660629841005388EADF81C0078BE
:1051A400061C111A000DF11A00019007A8009005C1
:1051B400AB0DF1160206240F2804D5F81CC0E047F5
:1051C40078157422D4082302E0061D84281E89461B
:1051D4001522DB0C1003ADF81200031632180A294D
:1051E4008A412C320A2C920A2C120A2232102C32B6
:1051F400160A5001BDF9082C32082C92082C12080A
:1052040022320E2C32140A1C07606801283FDB602E
:1052140068BD76081801484340FE3C012089583A8D
:10522400081E08A6041F2089022E200B0F02DA2074
:1052340089404200E0584620822AF212102A326045
:105244002AF2120E2A1001A082208E2004120001DC
:105254002803DB221001208202241B40423E73F902
:105264001016526016126016720E1652A0162956A7
:105274003C051000F18A081883180A2E582E091DBF
:10528400BA042D78094B83451C1C0458461399080D
:10529400805E09F0010D00318B281EA9C4042DF491
:1052A40009F20E71283EAA3A074DBA106C040200A6
:1052B40041F25550A4086DA0081290045F1082B406
:1052C40008110C1ED0B0081801D406505E2C012918
:1052D40000906C4C1310D0061C011120100E071006
:1052E400015520500610015D2090065C016120D01C
:1052F40014071D542F1D340B1C030B9D0C9E0850CA
:105304004B2C06A088203080B2800970052FA0881D
:10531400722261103200103001AA4075101D3C3A0F
:105324002C038846F68B2CBA06211060068646A00C
:105334008845F2355C101280109241102D060A1C2B
:10534400013406BD06491A30B81EE0DE0712280EE5
:1053540032000E1220B410071806BFB230F817003E
:10536400600C1C010C061FBA08100330F81E00A0C4
:105374000E12000E100588F830F81800E00E1C011B
:10538400F0051FD42F5C0130F819100715A41D82F5
:10539400091C040CA0BCEB0A0C54071DFC08170CD8
:1053A400FCAA1D2C0A1C040CB0BAEB0B0A5E071CE9
:1053B4000AB00BFB0AFA5FEAAA3A1AEBAC7E371D75
:1053C4009E1C40011328803C120A3CD2063C120A5F
:1053D4003CF20A0E3C1E30F4364DDE131EF08C30C7
:1053E4001E07301329281D42091C028010FB0812D5
:1053F400092E0622092C099018FB09F8B0EB0800C5
:105404008013D807921020D20E20240284467842BA
:1054140026BC018646B744092F1405BE07150E2E77
:1054240005BE07B0010880BC1E3C01F40484620977
:10543400B007EC0400E060461080BE1E3001D804C2
:10544400861E12D01E3001704618B21BF0834C1C0D
:105454000680FFFFE0B1FFFFF038161401049D053C
:10546400F22F28808A082DA4084D84081D8C06C0BC
:10547400051000FB07F0C7138E4384048E127C5280
:10548400273800042DDC301003E5410010104C4D8A
:10549400C604F30500000C1C010200195C0B2D2C42
:1054A4000F1250064F7A50640B1DAA1120015010A0
:1054B40082101C015082B2F6051D50251D0C1118D6
:1054C40008D0609088908490689062DC29D8110498
:1054D4001E10E6091250041ED0961029C82C013D56
:1054E4000050E2091801001063106A03C81D381146
:1054F4003C035F13460010F80B113612C80412085F
:105504003612480412C83ABA08F04D6A0512B7FCBC
:105514002DC80411082001A003E00E1C08D0F100DE
:105524000A43F69820824580291F20A0540A1401BA
:10553400A06225001C038C030AFB1ACC0B1D923FAE
:10554400140303804502DB126C02B306E0B848087A
:105554001C020B00E0C364201C03FDF79EFCA0307A
:10556400081E808C083EB4CA063E243A0623A0884E
:10557400101224E44FA0626C0B1E143E082B8046CC
:105584001A1A00161EC0FA072D2221831AD11E4CA6
:1055940002012801DB301511141D4E0D1C061420C8
:1055A400891A002901D5C4251D44281C01A28A5248
:1055B400800B1C09C9B2401AA08203E0A08A1A62B7
:1055C4000A4FA0829C0BF206165C811E815C32B6E7
:1055D4005CB2165C72E25C12E05C32E05C2D360771
:1055E40032149A4DE00D3216362D5C091C058246A4
:1055F40096488046D0B4041EC35A0996BA1236D3CC
:10560400122F15FC520712183C12127A118C695889
:105614004C047906E08B4882C20C10029200E0D15F
:10562400B219361DB00C9300112610027005E082E9
:10563400261C0601DA804800E0504658131E6AD240
:105644000A1DC00E12097A3C01A06A50B60E1E054E
:105654000A18212423E068241F2062B21210046A6D
:1056640010EBE13082543C012400501A063E24140D
:105674000B230600722108212A3C05801C8010603F
:10568400830A580A1DCA0E31A0140143F699FE2B51
:1056940002DB06300105E0687C32667C1E0BDE0509
:1056A4004DFC032D24151EC8F6072C03C820988032
:1056B4001846501F7528B20C210A32FD0A1D0A2211
:1056C4001C0800642510FB05F08D8E10DC262C02CE
:1056D4000400888E30281001F4F4DC1CF206041C4B
:1056E4002E1C34081D0403280418614B485861E239
:1056F4002D26083E2526084D104F480400C0FFFF04
:105704007947E42D3A145F0861D80C3DD0036D2627
:10571400513303D1E01D12171C0308881880255E3D
:105724000B64090000E768B0EBE7300600B65818D0
:10573400047604E02C48869C10042A4EFFE7E068B7
:10574400322C037006FB07064C2D2DF01210094075
:105754004005E0B6F1404F01DC29FC1E3065041C15
:1057640003E068C013182A511C01C0F340D205415C
:10577400663D06081FD11046042E25FA0CF00101DF
:105784000027696632126612116613206932F10627
:10579400663210665C0520612069C013285E043DF2
:1057A400D4031C053F44120018474C0F52124EF804
:1057B4001DC0041F6F510E111C043A690D0100FF36
:1057C400A9163406FF0368C5FFFF4154141EC0CE5A
:1057D4003D1DF0371C090D007D20606040F60F7000
:1057E400206A041E06D4381C09062E80F26E813607
:1057F400B2002E2F8418400A382116FB014108817B
:1058040041F288300C1EC8BA09537A7018826118A4
:105814008348611892881812C81862FA3082622488
:1058240010054862F9E036B20166720066112AF288
:105834000360668118C1669130F1086612C666D2AB
:105844000266611EC166F0010440F6B8CC8118F10D
:105854000966129366F2140366110CF106CCF30F79
:10586400487066126066F2170466F2057066F210FC
:10587400FA66F3292DE060F30FC8205E50142078F7
:10588400C0B207003A006168382016FB0040C068C7
:10589400FDF7A0FB40400162009716500310F12C65
:1058A400036222438169082C044069FDF7D8FBFA9E
:1058B400041FC0F3FE24500AB2804617F0F00058CB
:1058C400EA00070136500334300090633643426ADD
:1058D4000852010812C03E680441FC761C8DE6E8BB
:1058E4001E371C253224788002C1F858010C925CC2
:1058F4000C92600C92640C92680C926C0C92700C7A
:1059040092740C1C047801761CC4E75A0F100A0820
:10591400C4F830020FF21500C4F83408128D082FB1
:1059240038022A051EF6383B2DAC0430040200125E
:10593400B2062A9C1E23D6474313C39C510C925C87
:105944000C92600C92640C92680C926C0C92700C29
:1059540092740C10017801529C2D1E056FF8B574D9
:105964001B1C0B07003FB2062F77DA3FB2002F0350
:10597400661B12C432140309E02420174A5005D0D0
:10598400F85401242117E43238141C030089002838
:1059940005820F700724D00DD3032838D04E2C7203
:1059A400742C700178014D164378213883816A285C
:1059B4008002FDF735F92C52372C400210F5AE72F7
:1059C4002C1914A2012E92392E72202E72B42EB2EA
:1059D400342E926A2EF204099E1C077F1C84E7D49D
:1059E400F82C0230FC1F2EF2C01F2E4F68194F0FE7
:1059F400001E052D28055C03C820A060600A5723FB
:105A040060800A32FD0A1C052078F02108420372E6
:105A1400572804D806834602E0F01C028346A06897
:105A2400C03B1C0C01804689466068C117090641C9
:105A3400EA10722F1E421C1F2002FCF778FC181D6E
:105A4400F04E1C07060021894505DB01DC2A091FED
:105A5400D35FAE323E09F6152C0205DC02DB3209B7
:105A64004D52181C014046E0C2061E05423B2C0460
:105A7400022D80F2A1804A3B4D9E051215BC4F08B1
:105A8400826E05210C6D8E03210C6DEE03210C92A8
:105A9400C81893086230826224838862247003C821
:105AA400622CE00060F30564205EF2047A5EF30F7A
:105AB400C8205C2D04043C0106003204044F15FB8D
:105AC400DA03539EF94040016300961615C253034E
:105AD400622243016A082DC6038FD6F904041C010F
:105AE400824616040450035AEA000601365E3C045A
:105AF40004210C52C2365281086408406AFDF73F03
:105B0400FA6D1C5AE74E4D040421782DC659810CB8
:105B140092840C92880C928C0C92900C92940C921D
:105B2400980C929C0C1EA0363512C47A1C01C4F841
:105B3400C8F8124C04B804C4F8CC000A0412D00803
:105B44001295089ED490172D0804BE020804838081
:105B5400000C92840C92880C928C0C92900C92946F
:105B64000C92980C929C0C2FA000080410010020A9
:105B7400C1A04D2C096D10045EA02E09200C08D183
:105B8400E268D4F8C8102868FCF771FCC81E0266E5
:105B94001F21087E60EC084C0240F0818040045EC6
:105BA4000240041304D13411DE1E9C20584D7803A6
:105BB4006FC06F76035F9C004004FE078A40046355
:105BC4009C002C8FA000400443A0203883016B2844
:105BD4008002FCF715FF2C7D4004FC0101F18402D6
:105BE4001204212E92192E7D400473F1902EB23CA2
:105BF4002E924A2EF204099E4D40042004C4003023
:105C04006002E0F26D48044D68098D4604DE50469A
:105C1400042D72265E607E091E037E092FCF807ECE
:105C2400097E2D7E096F88815607CD78076116920B
:105C340088169EC87A098F086284079E4884073CA8
:105C44000188625C7A09F001242DD100628D760905
:105C5400F10962F3252BE05CF30FC8205AED4008EC
:105C640050040069FCF780FF409D40087E304008E6
:105C74005EC1400812802AFF0BB8FF40089E3840DE
:105C8400085E8238085241081E003C041C0321F8B7
:105C9400761C2C22031EA48A5D210612B6061EC49D
:105CA400865D210632B81247C000C81C03B6F580D1
:105CB4006F07BC03180536B214EB8601C1161E76B5
:105CC4007A2165E47E407A08800441F2C40250508F
:105CD4000EB2C80EB2CC0EB2D00EB2D40EB2D80EE2
:105CE40092DC0E1C0111F5870249811C12E41C1C74
:105CF4000D761CBBE70E4841F2301108510FF23506
:105D04002E1332340A12FD0A42381410022041F2D2
:105D14003C0A4D9A081FD955480C2F420FA0082C55
:105D24000501F95A0010415FCC102DA60436A10AD2
:105D340036A10A36C10A36C10A36A10A2DC4045650
:105D4400B20A140512B211EB8203C30A36520A21B5
:105D54001C37032A0A3D8004150A800104E0500E12
:105D6400B2C80EB2CC0EB2D00EB2D40EB2D80E92CD
:105D7400DC0E800413F5875318601C12E41C1652C1
:105D84000A4D7A116DEC04ADCA045E93CA044C0446
:105D9400032F80F28880CC043401286814527E0BCF
:105DA40072081E86364A4D0604456C4D40045E80DA
:105DB40012091C0129D00FD204700140D05930724D
:105DC4008730458E52581A1D4214400152C4323E47
:105DD400A3C16A2EA002FCF769FD32923F3252C879
:105DE4003219F2C20134B26A3492253472D434D2F4
:105DF4003834B28C34F2080BB41C087F1C73E741AE
:105E0400F22C100059E6041D04064DEC041E70EC3F
:105E14000F5E982C064C0802D1986802280ADA080A
:105E24006810272D42111AA3161C03086805004A9E
:105E3400EA1B1EB64A131C09B46013EB8606D6F897
:105E4400C460702014111010060013EB80000E685B
:105E5400C0121AB35A1001401CA306211820049E34
:105E640068B04205DB421EB49C061AA3702AD368AC
:105E740010041B0E683018C30A210E1C05D3F8BC8D
:105E84006030189E68211EF6762A110E21163112F2
:105E9400100305FB1600C310218C300203D0986850
:105EA400882BE0B3A41DFC31210823401E141215D5
:105EB400C65E70A2246D22082C0318DA2900097A20
:105EC400413E3094084C05F5C87001F01DF95008A6
:105ED400200200F071F91E32900E1F70303A2D1C12
:105EE40002FB6D1CE3E80B2C04D00C43F2E0714A76
:105EF400033003410043F2E40A12710A32E80A1241
:105F0400B10A32EC0A30032D1043F2F00A12C10A2E
:105F140032F40A1003492043F2F80A1D82291D8431
:105F24001CA18C9314DA88427276400210F170013D
:105F34008E180B382315FB03431B6B98476D1CE726
:105F4400D6A332BD3CA2193C6271B2400490221522
:105F5400FB02423A100DB3F908301BB212EB830274
:105F6400D2F8C020904632E2461D682D9148F21CBA
:105F7400394812E04861301108A40831085E01284C
:105F840016D12A00125262710C100400F5D050D8B8
:105F9400300E223348200441F68836F358CE2EC200
:105FA4009E0CD50CD6439813EA700C2232861DBC85
:105FB40055F001092290471EF20C641E12581EF17E
:105FC40007A0600210F521709E2002D3F804339CD0
:105FD40076B8248382B09E1F3EDA2E298001B20057
:105FE400903A9347734692727C915E22585E900C6D
:105FF4003615FB0646D6F8F463B0472B001B88F22F
:10600400064736927E3610012464B09412BD94D6AD
:1060140076303B19DA26F710424178780513F5DC1F
:10602400531B6898002DE8052DCE131E480E05124B
:10603400880412C8041E48801310030881012088B4
:106044000822C80C1D42161E483A162E8842161104
:10605400041E080E16124804228804111822C810BF
:106064002D62221285342E8558522DA8652C0209E2
:106074000008636A0A453C2D7E058C08B6F988023F
:10608400A080B6F81002042B1FC0B226091C048D90
:106094006081608902E61D1C15042809D0052812B8
:1060A400D0062815D0072818D01EE0E08CE8831B02
:1060B4006E1C1C1F2883608C6883A08CA883A08B13
:1060C400A882E08BE88210E0E0892881208A688138
:1060D4000BE06069E8FC051C01288106C0276328E1
:1060E400610E2FFFE77C161DEF321FF091E8183286
:1060F400020A3E8CF2181C0100282CB6131E28DE5E
:106104001A1E280E16128A901F12D1A45D1D692E24
:1061140012A6061001B6F9740414058E1288428082
:10612400F2B51C13A6F8221106A0028E02ADE026D9
:106134007276264004A280208D208024239BE06276
:10614400500101281B62121762128C62A00240F0F7
:106154008F803E72783E328364528C64527B40322C
:106164002A40300100282640B001012811A2527AA9
:106174003E900164DA003CB25DA0527C248352DA82
:106184009E164C74410CA38A023A9240184170B294
:106194003770527E4C1C072CDA00A916F1F400D695
:1061A400E60F2C0290470098361811061E90BA3755
:1061B4001E98661C1DC8241001D6F88028B20598C4
:1061C400113C1C030247F23151AE322005DB47F289
:1061D400305007E0126D2A1F210C212645AE4709D5
:1061E400D0AC4705D0AA6D60061C05C0B2E080A003
:1061F4008901D4051E6D7407F0040D4ED025D369B2
:10620400E08C1E60A607120A461DA6321D98242C97
:10621400010098692E331802DA0220A0282DF01705
:106224001C0216F5C670BE62113C4348E0261620D7
:106234006C1C019401013E521A312D1D041B1DDA00
:1062440008800615EB8202126B904732129C3210C2
:106254000360892081034A92094A12A4182D564BDF
:106264005001A08120501C0303D1608921101EC35A
:1062740013D070415E92085E21361582600181035D
:10628400E00A2DE6032DEC4E6C0610805FF42330FB
:10629400506088258D081A8F90831C1A22D0201DE7
:1062A4008C0312D0141E1090032250041E62162771
:1062B4002E06E61C1001A100D0061C010110109846
:1062C400031C02CD00106546692C01001067A2066C
:1062D4002D421A1001F10050121001E10050121069
:1062E400013D10901210011D1090121001CD00906C
:1062F4001210015110D01230024110D06506111253
:106304002002093010642A1C0510660FF2A900C28D
:10631400BC0E1D5A1D133050141001F520501412D8
:1063240095141284141001B53090141001093090A2
:10633400141C011930C2CC0E1DFA691350D014106C
:1063440001BD30D01412CD143E8C8E0E3D86045EF9
:10635400817A045DAC1A8F8883C01A4DE417AD7E30
:10636400044DC40E4D6E2C1EB552041C0101280AA6
:1063740030033622EA3C1415F5E870D5F85C12882F
:106384004700206084606A401C606231BD4817A0E9
:1063940001224262381A78602E066C1A1C0210150B
:1063A400F1442C202D1A07D001B5F88C1612D816FA
:1063B4001D4A2B6C0322A1F87820E22C200F2A001E
:1063C40014F11E0115F5D75041F61C335B59982280
:1063D400515841162C0418314959884782204002EB
:1063E400F41388478071043FB58814051DA6201C4A
:1063F400010306AAB82042016A100CC460B0470D1C
:10640400F11200029005A801901E1C0200009006E3
:10641400CC2010071A0215F5B07115F544D81E28C2
:106424003C061C07BDF81400A5F8E802BDB0201016
:1064340007A5F8EA022088032842B21F4003621A23
:106444002A10E6210C1A0A861E18721D43421312E2
:106454003001420301124002A5F850032CB21A2C59
:10646400F2001A2C121A2C52522CB21C2CF2001CC0
:106474002C121C2C100354035FE014B6100301907B
:1064840014F114BC1203BC40020E0204A9BA122C6B
:10649400BA5EA8420A8309D11C12501C12681C233C
:1064A40041E05E2DF620816A2D9A20C16A21126195
:1064B400C22DF820A12CF2000E2C720EC21DEA216E
:1064C400B12CF2000C2C320CC24190166CB42D8409
:1064D4001C1D4C221C0AF25A3315F5567205F2564D
:1064E4003115C203880AD5F8A861B04708B070BD59
:1064F40000004C240614F10A0214F10801F02BF8F0
:10650400330E41188900F107281C03F0B587B00643
:106514008A141D6A3F1C129005AA16F10C0117F586
:106524007F70D7F8D034984704A917E0043ED7E029
:10653400041DE0311550100F04AA05A907F2D44038
:10654400D7F838C5E04701AA020E1C083C50D7F81A
:10655400743798470198AC1B2E2196411C02000EFB
:1065640040EA30212216722F002DD22C2EB48A1A22
:106574003DD22C1C030AE087485F84452F8D42D806
:106584002C1E84B8321E83741A780520007081078B
:10659400B0F0C461B812158C3C02D5F87C174C03DA
:1065A4008A81E4F103C8328DC81C07320039000720
:1065B400F5C8504874081C01F413DB1A031C0F417E
:1065C400F64E10C05B002874D141F6D410C05904B3
:1065D4003A09120C121C014FF6EF2611110C1C087B
:1065E40011C85301AA390017F5C6380352083448B4
:1065F400027220C05D2C331AD10E6E5BBC0D1D726D
:10660400431C02AA04A907D80812706423CC2330BF
:1066140092031232C412600401E0049803903A72A7
:10662400803A72032832D028120712200617F5F098
:106634006041F6BC0310500102AA071032B81016CC
:10664400057814040CAB17F5CD526C11D8120C3A22
:106654001C03441C5CF807582432061C258641BCE4
:106664005204184315E0E2400250F01000E02146C5
:10667400F206064684020BAA06A9F4960AF43E0919
:10668400CC2494010AAA0BF4940108AA09F4F6167E
:1066940008F4D60AF45606F4360DF41C04F5640026
:1066A400100368C0624E6B5C1CF907041E29DC04ED
:1066B400251A1C02DC2252592A051D22055605EA18
:1066C40023E81212C806002041F64C1148532C2D21
:1066D400900B1E20C63D1C01B4FA2547238D1613CA
:1066E4002108520408520108320808491A1C0160A2
:1066F400802592082002A4F8E4030632E60632E874
:106704000632EA062FEC03CC0B1C01211D14960360
:10671400200201F07BF868410C533FF91A154A3006
:106724000200F001FE1A1D6205600200F012FB3443
:1067340012E828435FF934121A0C4326FD0C600456
:106744004470FDF7CDFD2612500E4328FA1A125E4E
:106754000C326F5A111810027114F563102F81FC5A
:10676400C80B2322002C1C012F70FC6C3E412C1200
:106774006B1C6307FF461C042770FEF769F8F026BC
:106784001D18164FF003181612F8081E755C124FE8
:10679400F403640C2D40034D280B2D0A3D41063EA5
:1067A40014B2103AC0BC1C010ED1071406100B0021
:1067B4009504F2EE2304F2E63214F579841C066B98
:1067C40070D4F8E073B847AC151DEE5618011C00E0
:1067D4000A3220060DF12A03320007A9781C05D4D9
:1067E400F8B872B8470B6C0524022E020CA9041DDC
:1067F400C6141B70B85A1202281E26AA05320B3280
:106804001C032E030CAA14640625001001D4F828D6
:10681400528D2C113C0313D105A8038E06AD9806A6
:10682400155C1203F42272E0125E341288341001F3
:1068340006A8041E1F1A00CA0431602D0A066192BC
:106844001E09E806272601261001D4F8042C1EBDD3
:10685400B22725DC1EBDD22425DE21702300107052
:106864004F0AD1F406100114F5B190125030127091
:1068740030300167E0067C221A7C1404F57B730433
:10688400F2EA04527AB2122C226DCA16C30BD1203A
:1068940021421268201E41A6062DCA063EE8F605CE
:1068A4005EB4CA0612E8125242124DCA061C01E82E
:1068B40003A46006412CB2EA2CF200EA2C12EA2C62
:1068C40052522CB2EC2CF200EC2C12EC2C4354035C
:1068D400902D600621F24D9804140323D10DF11E6E
:1068E400363608363E2240073244E8132F733012FE
:1068F40072E439701001D4F8A8C83D180B1128149B
:10690400011E03085416225422C61A400371B847C4
:106914000DE01C1E04B4061E14B4061E04B4068145
:106924001E2F0120EE032D50724586120C8449421D
:1069340032DC0A292E3EB436098D74031D800A6E9A
:10694400BD3E132C012F0031CA031D6E2C18015FAC
:10695400FA32DA1E3960031ED8BC5D2374FC1818A1
:106964000114F5A0F41805C2FF5348C4F87CDC1ADE
:106974000DE41280404FF2BDC472212C2002D4F8E1
:1069840038116A12A06A127474122012C002D01054
:10699400884766315C11A460048A5001F0A2FD743A
:1069A4004349FC18800804F588508C3001F0A4FE9B
:1069B400106004C83002F025F9383003945002F016
:1069C400C438100304F59050F02C1C018DFF2F12D5
:1069D400152F583182111E0D0815125C0A3DD41270
:1069E4003174122ED8216E100514F58C5212689051
:1069F400962D34151E09BE09416C1C0214F58E51E6
:106A0400743F2E478652215E1D261342211E215EAD
:106A1400300114F59A1E2DC6109DF0041D86354EC6
:106A2400804604115C1E7F8044635CFF0E5C03F0AF
:106A340060FFF78828041C09D75003F0B6F908480A
:106A440014F5D95E141D7A0B1D30066F2431201203
:106A5400100761720010277600108D041F5177987B
:106A6400151160253436F4B0167F462D9605415431
:106A74002D96051E128405254C2D64721DEC281DCF
:106A8400922B2F5080E2201E90A2232FD0803E18FC
:106A94001C0110810D440C1E0430291E9624291E4D
